{
    "contractName": "Exchange",
    "abi": [
        {
            "inputs": [
                {
                    "internalType": "address",
                    "name": "_feeAccount",
                    "type": "address"
                },
                {
                    "internalType": "uint256",
                    "name": "_feePercent",
                    "type": "uint256"
                }
            ],
            "stateMutability": "nonpayable",
            "type": "constructor"
        },
        {
            "anonymous": false,
            "inputs": [
                {
                    "indexed": false,
                    "internalType": "uint256",
                    "name": "id",
                    "type": "uint256"
                },
                {
                    "indexed": false,
                    "internalType": "address",
                    "name": "user",
                    "type": "address"
                },
                {
                    "indexed": false,
                    "internalType": "address",
                    "name": "tokenGet",
                    "type": "address"
                },
                {
                    "indexed": false,
                    "internalType": "uint256",
                    "name": "amountGet",
                    "type": "uint256"
                },
                {
                    "indexed": false,
                    "internalType": "address",
                    "name": "tokenGive",
                    "type": "address"
                },
                {
                    "indexed": false,
                    "internalType": "uint256",
                    "name": "amountGive",
                    "type": "uint256"
                },
                {
                    "indexed": false,
                    "internalType": "uint256",
                    "name": "timestamp",
                    "type": "uint256"
                }
            ],
            "name": "Cancel",
            "type": "event"
        },
        {
            "anonymous": false,
            "inputs": [
                {
                    "indexed": false,
                    "internalType": "address",
                    "name": "token",
                    "type": "address"
                },
                {
                    "indexed": false,
                    "internalType": "address",
                    "name": "user",
                    "type": "address"
                },
                {
                    "indexed": false,
                    "internalType": "uint256",
                    "name": "amount",
                    "type": "uint256"
                },
                {
                    "indexed": false,
                    "internalType": "uint256",
                    "name": "balance",
                    "type": "uint256"
                }
            ],
            "name": "Deposit",
            "type": "event"
        },
        {
            "anonymous": false,
            "inputs": [
                {
                    "indexed": false,
                    "internalType": "uint256",
                    "name": "id",
                    "type": "uint256"
                },
                {
                    "indexed": false,
                    "internalType": "address",
                    "name": "user",
                    "type": "address"
                },
                {
                    "indexed": false,
                    "internalType": "address",
                    "name": "tokenGet",
                    "type": "address"
                },
                {
                    "indexed": false,
                    "internalType": "uint256",
                    "name": "amountGet",
                    "type": "uint256"
                },
                {
                    "indexed": false,
                    "internalType": "address",
                    "name": "tokenGive",
                    "type": "address"
                },
                {
                    "indexed": false,
                    "internalType": "uint256",
                    "name": "amountGive",
                    "type": "uint256"
                },
                {
                    "indexed": false,
                    "internalType": "uint256",
                    "name": "timestamp",
                    "type": "uint256"
                }
            ],
            "name": "Order",
            "type": "event"
        },
        {
            "anonymous": false,
            "inputs": [
                {
                    "indexed": false,
                    "internalType": "uint256",
                    "name": "id",
                    "type": "uint256"
                },
                {
                    "indexed": false,
                    "internalType": "address",
                    "name": "user",
                    "type": "address"
                },
                {
                    "indexed": false,
                    "internalType": "address",
                    "name": "tokenGet",
                    "type": "address"
                },
                {
                    "indexed": false,
                    "internalType": "uint256",
                    "name": "amountGet",
                    "type": "uint256"
                },
                {
                    "indexed": false,
                    "internalType": "address",
                    "name": "tokenGive",
                    "type": "address"
                },
                {
                    "indexed": false,
                    "internalType": "uint256",
                    "name": "amountGive",
                    "type": "uint256"
                },
                {
                    "indexed": false,
                    "internalType": "address",
                    "name": "creator",
                    "type": "address"
                },
                {
                    "indexed": false,
                    "internalType": "uint256",
                    "name": "timestamp",
                    "type": "uint256"
                }
            ],
            "name": "Trade",
            "type": "event"
        },
        {
            "anonymous": false,
            "inputs": [
                {
                    "indexed": false,
                    "internalType": "address",
                    "name": "token",
                    "type": "address"
                },
                {
                    "indexed": false,
                    "internalType": "address",
                    "name": "user",
                    "type": "address"
                },
                {
                    "indexed": false,
                    "internalType": "uint256",
                    "name": "amount",
                    "type": "uint256"
                },
                {
                    "indexed": false,
                    "internalType": "uint256",
                    "name": "balance",
                    "type": "uint256"
                }
            ],
            "name": "Withdraw",
            "type": "event"
        },
        {
            "inputs": [
                {
                    "internalType": "address",
                    "name": "_token",
                    "type": "address"
                },
                {
                    "internalType": "address",
                    "name": "_user",
                    "type": "address"
                }
            ],
            "name": "balanceOf",
            "outputs": [
                {
                    "internalType": "uint256",
                    "name": "",
                    "type": "uint256"
                }
            ],
            "stateMutability": "view",
            "type": "function"
        },
        {
            "inputs": [
                {
                    "internalType": "uint256",
                    "name": "_id",
                    "type": "uint256"
                }
            ],
            "name": "cancelOrder",
            "outputs": [],
            "stateMutability": "nonpayable",
            "type": "function"
        },
        {
            "inputs": [
                {
                    "internalType": "address",
                    "name": "_token",
                    "type": "address"
                },
                {
                    "internalType": "uint256",
                    "name": "_amount",
                    "type": "uint256"
                }
            ],
            "name": "depositToken",
            "outputs": [],
            "stateMutability": "nonpayable",
            "type": "function"
        },
        {
            "inputs": [],
            "name": "feeAccount",
            "outputs": [
                {
                    "internalType": "address",
                    "name": "",
                    "type": "address"
                }
            ],
            "stateMutability": "view",
            "type": "function"
        },
        {
            "inputs": [],
            "name": "feePercent",
            "outputs": [
                {
                    "internalType": "uint256",
                    "name": "",
                    "type": "uint256"
                }
            ],
            "stateMutability": "view",
            "type": "function"
        },
        {
            "inputs": [
                {
                    "internalType": "uint256",
                    "name": "_id",
                    "type": "uint256"
                }
            ],
            "name": "fillOrder",
            "outputs": [],
            "stateMutability": "nonpayable",
            "type": "function"
        },
        {
            "inputs": [
                {
                    "internalType": "address",
                    "name": "tokenGet",
                    "type": "address"
                },
                {
                    "internalType": "uint256",
                    "name": "amountGet",
                    "type": "uint256"
                },
                {
                    "internalType": "address",
                    "name": "tokenGive",
                    "type": "address"
                },
                {
                    "internalType": "uint256",
                    "name": "amountGive",
                    "type": "uint256"
                }
            ],
            "name": "makeOrder",
            "outputs": [],
            "stateMutability": "nonpayable",
            "type": "function"
        },
        {
            "inputs": [
                {
                    "internalType": "uint256",
                    "name": "",
                    "type": "uint256"
                }
            ],
            "name": "orderCancelled",
            "outputs": [
                {
                    "internalType": "bool",
                    "name": "",
                    "type": "bool"
                }
            ],
            "stateMutability": "view",
            "type": "function"
        },
        {
            "inputs": [],
            "name": "orderCount",
            "outputs": [
                {
                    "internalType": "uint256",
                    "name": "",
                    "type": "uint256"
                }
            ],
            "stateMutability": "view",
            "type": "function"
        },
        {
            "inputs": [
                {
                    "internalType": "uint256",
                    "name": "",
                    "type": "uint256"
                }
            ],
            "name": "orderFilled",
            "outputs": [
                {
                    "internalType": "bool",
                    "name": "",
                    "type": "bool"
                }
            ],
            "stateMutability": "view",
            "type": "function"
        },
        {
            "inputs": [
                {
                    "internalType": "uint256",
                    "name": "",
                    "type": "uint256"
                }
            ],
            "name": "orders",
            "outputs": [
                {
                    "internalType": "uint256",
                    "name": "id",
                    "type": "uint256"
                },
                {
                    "internalType": "address",
                    "name": "user",
                    "type": "address"
                },
                {
                    "internalType": "address",
                    "name": "tokenGet",
                    "type": "address"
                },
                {
                    "internalType": "uint256",
                    "name": "amountGet",
                    "type": "uint256"
                },
                {
                    "internalType": "address",
                    "name": "tokenGive",
                    "type": "address"
                },
                {
                    "internalType": "uint256",
                    "name": "amountGive",
                    "type": "uint256"
                },
                {
                    "internalType": "uint256",
                    "name": "timestamp",
                    "type": "uint256"
                }
            ],
            "stateMutability": "view",
            "type": "function"
        },
        {
            "inputs": [
                {
                    "internalType": "address",
                    "name": "",
                    "type": "address"
                },
                {
                    "internalType": "address",
                    "name": "",
                    "type": "address"
                }
            ],
            "name": "tokens",
            "outputs": [
                {
                    "internalType": "uint256",
                    "name": "",
                    "type": "uint256"
                }
            ],
            "stateMutability": "view",
            "type": "function"
        },
        {
            "inputs": [
                {
                    "internalType": "address",
                    "name": "_token",
                    "type": "address"
                },
                {
                    "internalType": "uint256",
                    "name": "_amount",
                    "type": "uint256"
                }
            ],
            "name": "withdrawToken",
            "outputs": [],
            "stateMutability": "nonpayable",
            "type": "function"
        }
    ],
    "bytecode": "608060405234801561001057600080fd5b50604051610ee9380380610ee983398101604081905261002f91610058565b600080546001600160a01b0319166001600160a01b039390931692909217909155600155610092565b6000806040838503121561006b57600080fd5b82516001600160a01b038116811461008257600080fd5b6020939093015192949293505050565b610e48806100a16000396000f3fe608060405234801561001057600080fd5b50600436106100cf5760003560e01c806367b830ad1161008c5780639e281a98116100665780639e281a98146101d0578063a85c38ef146101e3578063e9c1896614610251578063f7888aec1461027457600080fd5b806367b830ad146101a15780637fd6f15c146101b45780639a5c90aa146101bd57600080fd5b80632453ffa8146100d4578063338b5dea146100f05780634a93e0da14610105578063508493bc14610138578063514fcac71461016357806365e17c9d14610176575b600080fd5b6100dd60025481565b6040519081526020015b60405180910390f35b6101036100fe366004610c52565b610287565b005b610128610113366004610c7c565b60066020526000908152604090205460ff1681565b60405190151581526020016100e7565b6100dd610146366004610c95565b600360209081526000928352604080842090915290825290205481565b610103610171366004610c7c565b610413565b600054610189906001600160a01b031681565b6040516001600160a01b0390911681526020016100e7565b6101036101af366004610c7c565b610531565b6100dd60015481565b6101036101cb366004610cc8565b6106a4565b6101036101de366004610c52565b610823565b61023e6101f1366004610c7c565b6004602081905260009182526040909120805460018201546002830154600384015494840154600585015460069095015493956001600160a01b0393841695928416949093909116919087565b6040516100e79796959493929190610d0c565b61012861025f366004610c7c565b60056020526000908152604090205460ff1681565b6100dd610282366004610c95565b610991565b6040516323b872dd60e01b8152336004820152306024820152604481018290526001600160a01b038316906323b872dd906064016020604051808303816000875af11580156102da573d6000803e3d6000fd5b505050506040513d601f19601f820116820180604052508101906102fe9190610d4a565b61035a5760405162461bcd60e51b815260206004820152602260248201527f5472616e7366657220746f2065786368616e6765206e6f7420636f6d706c6574604482015261195960f21b60648201526084015b60405180910390fd5b6001600160a01b0382166000908152600360209081526040808320338452909152902054610389908290610d89565b6001600160a01b0383166000908152600360209081526040808320338085529252909120919091557fdcbc1c05240f31ff3ad067ef1ee35ce4997762752e3a095284754544f4c709d7908390836103e08383610991565b604080516001600160a01b0395861681529490931660208501529183015260608201526080015b60405180910390a15050565b600081815260046020526040902060018101546001600160a01b0316331461047d5760405162461bcd60e51b815260206004820152601c60248201527f556e617574686f72697a656420746f2063616e63656c206f72646572000000006044820152606401610351565b805482146104bd5760405162461bcd60e51b815260206004820152600d60248201526c155b995e1a5cdd1a5b99c81251609a1b6044820152606401610351565b600082815260056020819052604091829020805460ff1916600117905582546002840154600385015460048601549386015494517f77de1da0be5f2d3b110d05c6694e5c4ff2d9da7cd23d84353ecf78c7b5acec61956104079533946001600160a01b039081169493911691904290610d0c565b60008181526005602052604090205460ff16156105905760405162461bcd60e51b815260206004820152601760248201527f4f7264657220686173206265656e2063616e63656c65640000000000000000006044820152606401610351565b60008181526006602052604090205460ff16156105e65760405162461bcd60e51b815260206004820152601460248201527313dc99195c88185b1c9958591e48199a5b1b195960621b6044820152606401610351565b6000811180156105f857506002548111155b61063b5760405162461bcd60e51b815260206004820152601460248201527313dc99195c88191bd95cc81b9bdd08195e1a5cdd60621b6044820152606401610351565b600081815260046020819052604090912080546001820154600283015460038401549484015460058501549495610687956001600160a01b0394851694938416939192909116906109bc565b546000908152600660205260409020805460ff1916600117905550565b806106af8333610991565b101561070d5760405162461bcd60e51b815260206004820152602760248201527f496e73756666696369656e742062616c616e636520666f72206372656174696e604482015266339037b93232b960c91b6064820152608401610351565b6002805490600061071d83610da1565b90915550506040805160e081018252600280548083523360208085018281526001600160a01b038b8116878901908152606088018c81528b831660808a0190815260a08a018c81524260c08c0181815260009a8b52600498899052998d90209b518c55955160018c0180549187166001600160a01b031992831617905593518b8b018054918716918616919091179055915160038b01555194890180549590931694909116939093179055905160058601559151600690940193909355905492517f9d33853d43e3607b4cc01fdc78338ff2dca6fef7db9232dae6d3eb55fbc3b1099361081593909290918991899189918991610d0c565b60405180910390a150505050565b8061082e8333610991565b101561087c5760405162461bcd60e51b815260206004820181905260248201527f496e73756666696369656e742062616c616e636520746f2077697468647261776044820152606401610351565b60405163a9059cbb60e01b8152336004820152602481018290526001600160a01b0383169063a9059cbb906044016020604051808303816000875af11580156108c9573d6000803e3d6000fd5b505050506040513d601f19601f820116820180604052508101906108ed9190610d4a565b6108f657600080fd5b6001600160a01b0382166000908152600360209081526040808320338452909152902054610925908290610dba565b6001600160a01b03831660008181526003602090815260408083203380855290835292819020859055805193845290830191909152810183905260608101919091527ff341246adaac6f497bc2a656f546ab9e182111d630394f0c57c710a59a2cb56790608001610407565b6001600160a01b03918216600090815260036020908152604080832093909416825291909152205490565b60006064600154856109ce9190610dd1565b6109d89190610df0565b90506109e48185610d89565b6109ee8633610991565b1015610a485760405162461bcd60e51b8152602060048201526024808201527f496e73756666696369656e742066756e647320746f20636f6d706c657465206f604482015263393232b960e11b6064820152608401610351565b6001600160a01b038086166000908152600360209081526040808320835490941683529290522054610a7b908290610d89565b6001600160a01b038087166000908152600360209081526040808320835490941683529290522055610aad8185610d89565b6001600160a01b0386166000908152600360209081526040808320338452909152902054610adb9190610dba565b6001600160a01b0386811660009081526003602090815260408083203384529091528082209390935590881681522054610b16908590610d89565b6001600160a01b0380871660009081526003602081815260408084208c861680865290835281852096909655938816835290815282822093825292909252902054610b62908390610dba565b6001600160a01b038481166000908152600360209081526040808320938b16835292905281812092909255338252902054610b9e908390610d89565b6001600160a01b03848116600081815260036020908152604080832033808552908352928190209590955584518c8152908101919091528883169381019390935260608301879052608083015260a08201849052871660c08201524260e08201527f0dddf4182dc0fc1a311cb75f049c97403c6b8a99cf6b2229a36e7c526acb3f81906101000160405180910390a150505050505050565b80356001600160a01b0381168114610c4d57600080fd5b919050565b60008060408385031215610c6557600080fd5b610c6e83610c36565b946020939093013593505050565b600060208284031215610c8e57600080fd5b5035919050565b60008060408385031215610ca857600080fd5b610cb183610c36565b9150610cbf60208401610c36565b90509250929050565b60008060008060808587031215610cde57600080fd5b610ce785610c36565b935060208501359250610cfc60408601610c36565b9396929550929360600135925050565b9687526001600160a01b03958616602088015293851660408701526060860192909252909216608084015260a083019190915260c082015260e00190565b600060208284031215610d5c57600080fd5b81518015158114610d6c57600080fd5b9392505050565b634e487b7160e01b600052601160045260246000fd5b60008219821115610d9c57610d9c610d73565b500190565b600060018201610db357610db3610d73565b5060010190565b600082821015610dcc57610dcc610d73565b500390565b6000816000190483118215151615610deb57610deb610d73565b500290565b600082610e0d57634e487b7160e01b600052601260045260246000fd5b50049056fea2646970667358221220ccd7559e6dd868e0315170ea9a0b8f783abab44bd3271a3d4024bc827501c06b64736f6c634300080f0033",
    "sourcePath": "/home/ximas/dev/capstone/contracts/Exchange.sol",
    "compiler": {
        "name": "solc",
        "version": "0.8.15+commit.e14f2714"
    },
    "functionHashes": {
        "balanceOf(address,address)": "f7888aec",
        "cancelOrder(uint256)": "514fcac7",
        "depositToken(address,uint256)": "338b5dea",
        "feeAccount()": "65e17c9d",
        "feePercent()": "7fd6f15c",
        "fillOrder(uint256)": "67b830ad",
        "makeOrder(address,uint256,address,uint256)": "9a5c90aa",
        "orderCancelled(uint256)": "e9c18966",
        "orderCount()": "2453ffa8",
        "orderFilled(uint256)": "4a93e0da",
        "orders(uint256)": "a85c38ef",
        "tokens(address,address)": "508493bc",
        "withdrawToken(address,uint256)": "9e281a98"
    },
    "gasEstimates": {
        "creation": {
            "codeDepositCost": "731200",
            "executionCost": "infinite",
            "totalCost": "infinite"
        },
        "external": {
            "balanceOf(address,address)": "infinite",
            "cancelOrder(uint256)": "42318",
            "depositToken(address,uint256)": "infinite",
            "feeAccount()": "2448",
            "feePercent()": "2329",
            "fillOrder(uint256)": "infinite",
            "makeOrder(address,uint256,address,uint256)": "infinite",
            "orderCancelled(uint256)": "2516",
            "orderCount()": "2285",
            "orderFilled(uint256)": "2495",
            "orders(uint256)": "15406",
            "tokens(address,address)": "infinite",
            "withdrawToken(address,uint256)": "infinite"
        },
        "internal": {
            "_trade(uint256,address,address,uint256,address,uint256)": "infinite"
        }
    }
}